:020000040800F2
:1030000000050020C1310008DDAF0008DDAF000879
:10301000DDAF0008DDAF0008DDAF0008DDAF000860
:10302000DDAF0008DDAF0008DDAF00086D8D0008E2
:10303000DDAF0008DDAF0008DDAF0008DDAF000840
:10304000DDAF0008DDAF0008DDAF0008DDAF000830
:10305000DDAF0008DDAF0008DDAF0008DDAF000820
:10306000DDAF0008DDAF0008DDAF0008DDAF000810
:10307000DDAF0008DDAF0008DDAF0008DDAF000800
:10308000DDAF0008DDAF0008DDAF0008056900080E
:1030900021690008DDAF0008DDAF0008DDAF0008E2
:1030A000DDAF0008DDAF0008DDAF0008DDAF0008D0
:1030B0006D860008DDAF0008DDAF0008DDAF000859
:1030C000DDAF0008DDAF0008DDAF0008DDAF0008B0
:1030D000DDAF0008DDAF0008DDAF0008DDAF0008A0
:1030E000DDAF0008DDAF0008DDAF0008DDAF000890
:1030F000DDAF0008DDAF0008DDAF0008DDAF000880
:10310000DDAF0008DDAF0008DDAF0008DDAF00086F
:10311000DDAF0008DDAF0008DDAF0008DDAF00085F
:10312000DDAF0008DDAF0008DDAF0008DDAF00084F
:10313000DDAF0008DDAF0008DDAF0008DDAF00083F
:10314000DDAF0008DDAF0008DDAF0008DDAF00082F
:10315000DDAF0008DDAF0008DDAF0008DDAF00081F
:1031600040A2E4F164689106000000000000000045
:10317000000000006634177F00008178D00008004E
:08318000000000000000000047
:103188002172000815720008C5B20008F1B20008E3
:103198006572000815B3000821630008355100085E
:1031A8005554000859420008D5420008CD4300088C
:0831B800A94800087D49000848
:1031C00072B6254880F3098824484EF60851CEF29D
:1031D00000010860022080F31488BFF36F8F07F0AE
:1031E000B5FE01F0DDFB1E481E491F4A91423CBF5F
:1031F00041F8040BFAE71D49174A91423CBF41F8D8
:10320000040BFAE71A491B4A1B4B9A423EBF51F87E
:10321000040B42F8040BF8E700201849184A9142C1
:103220003CBF41F8040BFAE707F0A0FE07F094FE5C
:10323000144C154DAC4203DA54F8041B8847F9E7E7
:1032400008F04CF8114C124DAC4203DA54F8041B50
:103250008847F9E707F086BE000A00200030000822
:1032600055555555000000200005002000050020A0
:103270002CD20008000A00201C0A0020200A00208E
:10328000B814002088310008C0310008C03100089F
:10329000C03100082DE9F04FC1F80CD0C3689D463D
:1032A000BDE8F08F06F00EFC002383F3118828465A
:1032B000A047002005F09AFE06F0EEFB07F0C4F8E8
:1032C00006F000FC00DFFEE742000ED2B2F1FE4F36
:1032D0000BD34FF09E03B3EB126209D44FEA0023E5
:1032E00043F0004323FA02F070474FF000007047AC
:1032F00012F1610F01D1420202D14FF0FF3070474D
:103300004FF00000704700BF53B94AB9002908BF09
:1033100000281CBF4FF0FF314FF0FF3000F03CB8E9
:1033200082B0EC462DE9005000F01EF8DDF804E014
:1033300002B00CBC704700BF2DE9F041069C9046DE
:1033400006460F461D4600F029F808FB01FCA8FBC5
:10335000002300FB05C5B21A2B4467EB0303864626
:10336000C4E90023BDE8F0812DE9F843089E174623
:10337000804689461D4600F067F900FB05F3A0FB77
:10338000074507FB0137B8EB04043D4469EB05052D
:10339000C6E90045BDE8F883704700BF00292DE964
:1033A000F043C0F2A8800026002BC0F29E80814628
:1033B0008E4690469C46174604460D46002B3DD14E
:1033C0008A4259D9B2FA82F33BB1C3F120029D403F
:1033D00020FA02F29F4015439C40390CB5FBF1F0F6
:1033E0001FFA87FE01FB10550EFB00F3220C42EA88
:1033F0000545AB4209D9ED1900F1FF3280F00B8190
:10340000AB4240F2088102383D44ED1AB5FBF1F3BE
:1034100001FB13550EFB03FEA4B244EA0545AE457D
:1034200008D9ED1903F1FF3280F0F780AE4540F284
:10343000F480023B43EA0043002203E08B420FD9B1
:1034400000221346341C18BF012460424FF00005CF
:1034500065EB45015840514000196941BDE8F083D2
:10346000B3FA83F2002A40F089808B4202D3804570
:1034700000F2E2800123E5E712B90123B3FBF2F782
:10348000B7FA87F8B8F1000F3BD1ED1B4FEA174CA4
:103490001FFA87FE0122B5FBFCF00CFB10550EFB5A
:1034A00000F3210C41EA0545AB4207D9ED1900F1C3
:1034B000FF3102D2AB4200F2C3800846ED1AB5FBE1
:1034C000FCF30CFB13550EFB03FEA4B244EA0545C6
:1034D000AE4507D9ED1903F1FF3102D2AE4500F236
:1034E000AD800B4643EA0043ACE752426FEA060662
:1034F00063EB43035BE7404261EB41014FF0FF3672
:1035000052E707FA08F7C8F1200225FA02F34FEA5A
:10351000174CB3FBFCF11FFA87FE0CFB113324FAA6
:1035200002F205FA08F50EFB01F92A43100C40EAF5
:103530000343994504FA08F407D9DB1901F1FF3078
:1035400078D2994576D902393B44C9EB0303B3FBE2
:10355000FCF00CFB10330EFB00F592B242EA034381
:103560009D4207D9DB1900F1FF325FD29D425DD940
:1035700002383B445D1B40EA01428CE7C2F1200364
:1035800028FA03F10CFA02FC41EA0C0C4FEA1C4049
:103590002EFA03F1B1FBF0F51FFA8CF700FB1511C1
:1035A00029FA03F30EFA02FE07FB05F943EA0E0EB1
:1035B0004FEA1E4343EA0141894508FA02F808D957
:1035C00011EB0C0105F1FF3332D2894530D9023DB0
:1035D0006144C9EB0101B1FBF0F300FB131107FBE0
:1035E00003F71FFA8EFE4EEA014E774508D91EEB0F
:1035F0000C0E03F1FF3117D2774515D9023BE64493
:1036000043EA0543A3FB0889C7EB0E0ECE4509D359
:1036100005D0002216E71046F7E613460AE7944065
:103620004445F6D2013BF4E70B46E9E71046A1E733
:103630001D46CEE7014688E7134603E7023B51E704
:1036400002383D443AE700BF2DE9F043002B44D156
:103650008A42154604464FD9B2FA82F70E464FB158
:10366000C7F12003B94020FA03F602FA07F50E432A
:1036700000FA07F42F0CB6FBF7F01FFA85FE07FBE4
:1036800010620EFB00F1260C46EA0243994209D96A
:103690005B1900F1FF3280F0EE80994240F2EB803E
:1036A00002382B44591AB1FBF7F307FB13110EFB39
:1036B00003FEA4B244EA01418E4508D9491903F139
:1036C000FF3280F0DA808E4540F2D780023B43EA39
:1036D000004000263146BDE8F0838B4247D8B3FA5C
:1036E00083F6002E48D18B4202D3824200F2CF8073
:1036F00001203146BDE8F08312B90125B5FBF2F592
:10370000B5FA85FCBCF1000F78D1491B2F0C1FFACC
:1037100085FE0126B1FBF7F007FB10110EFB00F24E
:10372000230C43EA01418A4207D9491900F1FF33CA
:1037300002D28A4200F2BC801846891AB1FBF7F324
:1037400007FB13110EFB03FEA4B244EA01429645A7
:1037500008D9521903F1FF3180F09180964540F26B
:103760008E80023B43EA00403146BDE8F0830026EC
:1037700030463146BDE8F083C6F1200422FA04F554
:10378000B3402B4321FA04F74FEA1348B7FBF8FC88
:103790001FFA83F908FB1C7720FA04FE01FA06F5EC
:1037A00009FB0CF44EEA05054FEA154E4EEA0747B1
:1037B000BC4202FA06F204D9FF180CF1FF3168D3BB
:1037C0008C463F1BB7FBF8F408FB147709FB04F9A0
:1037D000ADB245EA0741894504D9C91804F1FF355E
:1037E0005DD32C4644EA0C44A4FB0223C9EB01013F
:1037F000994249D345D0204600266BE7CCF12004FE
:1038000005FA0CF521FA04F32A0CB3FBF2F61FFAC1
:1038100085FE02FB163820FA04F701FA0CF10EFBC4
:1038200006F90F433C0C44EA0843994500FA0CF4AE
:1038300007D95B1906F1FF3138D2994536D9023ED6
:103840002B44C9EB0303B3FBF2F002FB10330EFB76
:1038500000F1BFB247EA0343994207D95B1900F16F
:10386000FF3721D299421FD902382B441746591AE3
:1038700040EA06464EE7104614E7134627E70B4694
:1038800070E7B0409042B6D2601E002622E7304674
:1038900020E7BC4294D9ACF1020C1F4491E7894562
:1038A0009FD9023C19449DE73846DFE70E46C8E73A
:1038B0000238294441E700BF80F0004002E000BF29
:1038C00081F0004142001FBF5FEA410392EA030F0B
:1038D0007FEA226C7FEA236C6AD04FEA1262D2EB55
:1038E0001363C1BFD218414048404140B8BF5B425A
:1038F000192B88BF704710F0004F40F4000020F0F3
:103900007F4018BF404211F0004F41F4000121F008
:103910007F4118BF494292EA030F3FD0A2F1010252
:1039200041FA03FC10EB0C00C3F1200301FA03F190
:1039300000F0004302D5494260EB4000B0F5000FB3
:1039400013D3B0F1807F06D340084FEA310102F172
:103950000102FE2A51D2B1F1004F40EBC25008BF24
:1039600020F0010040EA03007047490040EB0000EE
:1039700010F4000FA2F10102EDD1B0FA80FCACF11D
:10398000080CB2EB0C0200FA0CF0AABF00EBC2501C
:1039900052421843BCBFD0401843704792F0000F0A
:1039A00081F4000106BF80F400000132013BB5E75D
:1039B0004FEA41037FEA226C18BF7FEA236C21D0D3
:1039C00092EA030F04D092F0000F08BF0846704738
:1039D00090EA010F1CBF0020704712F07F4F04D106
:1039E000400028BF40F00040704712F100723CBF19
:1039F00000F50000704700F0004343F0FE4040F443
:103A0000000070477FEA226216BF08467FEA236300
:103A10000146420206BF5FEA412390EA010F40F4EB
:103A2000800070474FF0000304E000BF10F0004337
:103A300048BF40425FEA000C08BF704743F096431E
:103A400001464FF000001CE050EA010208BF704739
:103A50004FF000030AE000BF50EA010208BF7047C0
:103A600011F0004302D5404261EB41015FEA010CD5
:103A700002BF84460146002043F0B64308BFA3F1CD
:103A80008053A3F50003BCFA8CF2083AA3EBC253AF
:103A900010DB01FA02FC634400FA02FCC2F12002CE
:103AA000BCF1004F20FA02F243EB020008BF20F005
:103AB0000100704702F1200201FA02FCC2F120026B
:103AC00050EA4C0021FA02F243EB020008BF20EA60
:103AD000DC7070474FF0FF0C1CEAD0521EBF1CEA8E
:103AE000D15392EA0C0F93EA0C0F6FD01A4480EA7C
:103AF000010C400218BF5FEA41211ED04FF0006365
:103B000043EA501043EA5111A0FB01310CF0004090
:103B1000B1F5000F3EBF490041EAD3715B0040EAB6
:103B2000010062F17F02FD2A1DD8B3F1004F40EB86
:103B3000C25008BF20F00100704790F0000F0CF059
:103B4000004C08BF49024CEA502040EA51207F3A1D
:103B5000C2BFD2F1FF0340EAC250704740F40000F8
:103B60004FF00003013A5DDC12F1190FDCBF00F0E9
:103B700000407047C2F10002410021FA02F1C2F197
:103B8000200200FA02FC5FEA310040F1000053EA33
:103B90004C0308BF20EADC70704792F0000F00F081
:103BA000004C02BF400010F4000F013AF9D040EA87
:103BB0000C0093F0000F01F0004C02BF490011F41B
:103BC000000F013BF9D041EA0C018FE70CEAD15319
:103BD00092EA0C0F18BF93EA0C0F0AD030F0004C99
:103BE00018BF31F0004CD8D180EA010000F000404D
:103BF000704790F0000F17BF90F0004F084691F00B
:103C0000000F91F0004F14D092EA0C0F01D1420244
:103C10000FD193EA0C0F03D14B0218BF084608D10D
:103C200080EA010000F0004040F0FE4040F4000057
:103C3000704740F0FE4040F4400070474FF0FF0CEA
:103C40001CEAD0521EBF1CEAD15392EA0C0F93EA31
:103C50000C0F69D0A2EB030280EA010C49024FEA83
:103C6000402037D04FF0805343EA111143EA10133C
:103C70000CF000408B4238BF5B0042F17D024FF4F4
:103C8000000C8B4224BF5B1A40EA0C00B3EB510FCF
:103C900024BFA3EB510340EA5C00B3EB910F24BFB8
:103CA000A3EB910340EA9C00B3EBD10F24BFA3EB3D
:103CB000D10340EADC001B0118BF5FEA1C1CE0D105
:103CC000FD2A3FF650AF8B4240EBC25008BF20F0B8
:103CD000010070470CF0004C4CEA50207F32C2BF0C
:103CE000D2F1FF0340EAC250704740F400004FF0A9
:103CF0000003013A37E792F0000F00F0004C02BFDA
:103D0000400010F4000F013AF9D040EA0C0093F0A3
:103D1000000F01F0004C02BF490011F4000F013BFD
:103D2000F9D041EA0C0195E70CEAD15392EA0C0F65
:103D300008D142027FF47DAF93EA0C0F7FF470AF9D
:103D4000084676E793EA0C0F04D14B023FF44CAFE0
:103D500008466EE730F0004C18BF31F0004CCAD175
:103D600030F000427FF45CAF31F000437FF43CAFB1
:103D70005FE700BF90B585B000AF78600023FB60BF
:103D800009E0FB6803F1080403F0BAFA02460B46A7
:103D9000204607F063FE07F10C03184601F022FCF1
:103DA0000346002BEDD11437BD4690BD80B485B0DD
:103DB00000AF0346FB710E4B1B68FB6005E0FB790F
:103DC000013BFB71FB681B6FFB60FB68002B02D0A3
:103DD000FB79002BF3D1FB79002B01D0002300E00D
:103DE000FB6818461437BD465DF8047B704700BF7A
:103DF0001414002080B483B000AF0B4B1B687B60B1
:103E00000023FB7005E0FB780133FB707B681B6FC0
:103E10007B607B68002BF6D1FB7818460C37BD46DB
:103E20005DF8047B704700BF1414002080B485B097
:103E300000AF78600023FB730B4B1B68BB6005E091
:103E4000FB7B0133FB73BB681B6FBB60BB68002B44
:103E500003D0BA687B689A42F2D1FB7B18461437CC
:103E6000BD465DF8047B70471414002090B587B000
:103E700000AF786039603B681B7803F00203DBB267
:103E8000002B07D03B685B68C3F31C0343F000437F
:103E9000BB6005E03B689B88C3F30A039BB2BB6031
:103EA0003B681B7803F00103DBB2002B03D0BB6837
:103EB00043F08043BB603B681B78C3F38303DBB2F2
:103EC0003B753B6803F108023B7D1C4607F1080384
:103ED000043318461146224608F08AFE7B681C46C9
:103EE00007F108030FCB84E80F0078681C37BD4644
:103EF00090BD00BF80B586B000AFF860B9607A6051
:103F00007B687B61BB683B617B691A783B691A708F
:103F10007B699A683B695A607B695B68DA8A3B69AE
:103F20001A817B695B685A7E3B699A727B695B6820
:103F30009A7E3B69DA727B695B68DA7E3B691A7349
:103F40007B699B689B697A6951683A6910320846B7
:103F5000114698471837BD4680BD00BF80B588B070
:103F600000AF786039607B68002B3CD03B68002B49
:103F700039D0786807F012FAB861BB69002B32D0EB
:103F8000BB69DB6EFB612BE0FB691B689A7A3B68BF
:103F90001B7E9A4221D1FB691B68B869194601F062
:103FA000AFFB03461A463B68DB8A9A4215D1BB69D0
:103FB0001B783B733B683B61FB691B687B61FB695A
:103FC000191DFB691B68DB6803F1100207F10C0384
:103FD00008461146054A03F0AFFCFB691B69FB610B
:103FE000FB69002BD0D12037BD4680BDF53E0008CF
:103FF00080B586B000AFF860B96011461A460B462E
:10400000FB8013467B71FB68002B02D0BB68002B42
:1040100001D100232DE0F86807F0C0F938613B6951
:10402000002B01D1002324E03B69DB6E7B611CE0A7
:104030007B691B689B7A7A799A4213D17B691B68EA
:104040003869194601F05CFB03461A46FB88934227
:1040500008D17B691B68D3E90023B968C1E9002353
:10406000012306E07B691B697B617B69002BDFD143
:10407000002318461837BD4680BD00BF80B485B008
:1040800000AFF860B9607A60FB68002B11D0FB6864
:104090007A681A60BB689B089AB2FB689A80FB68D2
:1040A0009B887F2B02D9FB687F229A80FB687F2246
:1040B000DA801437BD465DF8047B704780B487B062
:1040C00000AF7860084611461A460346FB700B465F
:1040D0003B801346BB707B68002B03D07B681B685A
:1040E000002B01D10023A6E0FB78002B08D03B88F1
:1040F0001B029BB243F48032BB7813437B6101E027
:104100003B887B6100237B827B68DB883B827F234B
:10411000FB817F23BB8110E07B8A01337B82FB899B
:10412000BB813B8AFB817B681A683B8A9B001344F6
:104130009B78C3F34603DBB23B823B8A7F2B11D0D3
:104140007B681A683B8A9B0013441A7859780902E5
:104150000A439B7803F001031B0413431A467B694F
:104160009A42D9D13B8A7F2B38D17B689B887A8A47
:104170009A4204D3FB893B82BB89FB8101E07B8AA5
:104180003B827B681A683B8A9B0013447A69C2F3BE
:104190001002D1B2002001431970110AC9B20020E7
:1041A00001435970120C02F0010202F001009A78EA
:1041B00022F00102114602460A439A707B681A688F
:1041C0003B8A9B0013440022DA707B681A683B8AA2
:1041D0009B001A44937843F0FE039370FB897F2B76
:1041E00020D07B681A68FB899B001A447B68196899
:1041F0003B8A9B000B449B78C3F34603D9B2937868
:1042000061F3470393707B681A683B8A9B001A44EA
:104210007B68DB88DBB203F07F03D9B2937861F36C
:10422000470393707B683A8ADA807B681A683B8A16
:104230009B001344033318461C37BD465DF8047BCE
:10424000704700BF80B400AF024B1846BD465DF812
:10425000047B70471814002080B582B002AF0E4B6B
:1042600000221A600C4B00221A710B4B00225A716B
:10427000094B00229A71084B00221A8142F21073F6
:1042800000930123019305480549064A002303F0E2
:104290000FFEBD4680BD00BF18140020200A00207C
:1042A00024140020A942000880B582B000AF7860D5
:1042B000064B1B680133054A13600020044918228D
:1042C000024B01F0E7FC0837BD4680BD1814002002
:1042D000E8CC000880B584B002AF0020074901F0A7
:1042E000FBF9786000230093054806497A68064B7D
:1042F00003F08CFE0837BD4680BD00BF88CD0008A6
:10430000200A0020381400200D43000880B5E8B0D2
:1043100000AF07F10C03186007F1080319603B1D9B
:104320001A6007F108031B68C7F89C3107F11003F6
:10433000184600214FF4C47208F080FCFFF782FF9A
:10434000024607F1100307CA83E8070007F11003CC
:1043500022331846102100F029FB144B1A7E07F176
:1043600010031A74114B5A7E07F110035A7407F1A7
:10437000100303229A740D4B5A6907F110035A6116
:104380000A4BD3E9022307F11001C1E90623D7F84C
:104390009C311A7807F110031046D7F89C111A4681
:1043A00001F0BCFC07F5D077BD4680BD6031000848
:1043B00080B582B000AF786078680421002204F0F4
:1043C0008DFB034618460837BD4680BD80B586B0D4
:1043D00002AF0023FB7334E0FB7B184601F0BCF90D
:1043E0000346002B27D15020FFF7E2FFB860BB68DF
:1043F000002B02D1184805F001FBBB68002B1CD034
:10440000FB7B1846154901F067F97860BB68FA7BB9
:104410001A70BB6800225A60BB6803F11C02BB68BB
:1044200000930F4811467A680E4B03F0EFFDB86811
:1044300000F0D6F802E000BF00E000BFFB7B0133D4
:10444000FB73FFF7D7FC03461A46FB7B9342C3D3AB
:104450001037BD4680BD00BF08D2000848CD000817
:10446000200A00203945000880B582B000AF78608E
:104470007B6808330648194603F0A6FD7B681C33A9
:104480000348194603F000FE0837BD4680BD00BF53
:10449000200A002090B58DB000AF7860786803F0F6
:1044A000A3FDF862F86A00F02FF9034683F00103D8
:1044B000DBB2002B03D0F86AFFF7D6FF36E0F86ACC
:1044C00000F08EF807F108031846102100F06EFA8C
:1044D00000233B76FB6A5B68002B0CBF01230023A3
:1044E000DBB27B76FB6A5B68C3F11003062B28BF47
:1044F0000623DBB2BB76FB6A5B6807F108021A444D
:10450000BB7E1C4607F118030333184611462246AA
:1045100008F06EFBFB6A1A7807F11803104605498C
:10452000182201F0B7FBFB6A00225A603437BD46FF
:1045300090BD00BF48CD000890B58DB000AFF860C9
:10454000B9607A60BB68FB62FB6A1033BB627B6850
:104550007B62786A00F0D8F8034683F00103DBB28F
:10456000002B03D0786AFFF77FFF36E0786A00F00F
:1045700037F87B6A00225A60FB6A1B7B002B2CD029
:1045800007F114031846102100F010FABB6ADA1C78
:10459000BB6A9B781C4607F1140318461146224655
:1045A00008F016FB0346002B17D1BB6A9B780F2B34
:1045B00008D8BB6A9B781A467B6A5A60786A00F012
:1045C0005DF80AE07B6A1A78BB6A1B7810461946C8
:1045D00001F0F8F8786AFFF747FF3437BD4690BD21
:1045E00090B587B002AF7860786800F08DF8034628
:1045F00083F00103DBB2002B03D07868FFF734FFB0
:104600002EE000F095F8034618461749FFF762FAC6
:10461000034618461549FFF755F90346FB607B68CA
:1046200008331348194603F0CFFC7B6803F10804F4
:10463000F868FEF749FE024642F2107303FB02F3EC
:1046400003F2E7330B4AA2FB03239B099BB20093BF
:104650000023019306482146074A7B6803F028FCA3
:104660001437BD4690BD00BF0000C843000016448B
:10467000200A0020D34D62109544000890B587B001
:1046800002AF7860786800F03FF8034683F00103DA
:10469000DBB2002B03D07868FFF7E6FE29E000F0DC
:1046A00047F8034618461449FFF714FA0346FB601F
:1046B0007B6808331148194603F086FC7B6803F1D8
:1046C0000804F868FEF700FE024642F2107303FB8E
:1046D00002F303F2E7330A4AA2FB03239B099BB2CE
:1046E00000930023019305482146064A7B6803F0A6
:1046F000DFFB1437BD4690BD0000C843200A0020F0
:10470000D34D62109544000880B582B000AF786048
:104710007B681B78184601F01FF80346002B0CBF7E
:1047200001230023DBB218460837BD4680BD00BF19
:1047300080B586B000AF1F4B1B68002B1AD13B1D04
:104740001846102100F032F93B1D7B6102F0A0FDFC
:1047500002467B691B685A407B6904331B685A40D8
:104760007B6908331B685A407B690C331B685340D4
:10477000104A13600F4B1B680F4A02FB03F30D4AEC
:1047800013600C4B1B68DA0A0A4B1B685340094A3A
:104790001268920F0B32D3409BB21846FFF742F9D2
:1047A000034618460549FFF749FA034618461837E5
:1047B000BD4680BD6C140020B577922C00FF7F476A
:1047C00080B400AFBFF34F8F0549054BDB6803F49E
:1047D000E062044B1343CB60BFF34F8F00BFFDE794
:1047E00000ED00E00400FA052DE9B04F86B000AFFF
:1047F000F860F9680C464FF00005204629464FEA5C
:10480000810B4BEA907B4FEA800A504659464B0198
:1048100043EAD0634201121A63EB0103A41845EB8B
:10482000030522462B4699007960796841EA927126
:10483000796091003960D7E90001801841EB0301EC
:1048400002460B464FEA031949EA12794FEA021869
:1048500042464B461046194640F2E7324FF00003FD
:10486000121843EB0103104619464FF47A724FF0C9
:104870000003FEF749FD02460B46C7E90423D7E9CA
:1048800004234FF6FE704FF00001994208BF90429A
:1048900002D2044805F0B2F83B8A18461837BD46E4
:1048A000BDE8B08F18D2000880B584B002AF0020F8
:1048B000074900F011FF786000230093054806497E
:1048C0007A68064B03F0A2FB0837BD4680BD00BFE7
:1048D00028CD0008200A002084140020F948000890
:1048E00080B582B000AF7860FFF76AFF0837BD4639
:1048F00080BD00BF0000000080B58AB002AFF86044
:10490000B9607A60BB68FB61FB691033BB6100234F
:104910003B75BB69D3E9002316A1D1E900018B42A5
:1049200008BF824213D102F0A5FD0346002B0ED032
:1049300001233B750A20FFF757FF0346009300232E
:104940000193094809490A4A002303F0B1FAFB69B7
:104950001A7807F114031046F9691A4601F0DEF9D6
:104960002037BD4680BD00BF200A00207014002003
:10497000E14800081E1B55CEAC00000080B500AF1A
:1049800004F0C2F80346B3F5007F02D2002005F020
:1049900035F8024B00221A7080BD00BF180A0020B3
:1049A00080B500AF03F008FD80BD00BF80B586B0C4
:1049B00000AF78600B46FB70124B1B68FB60124B1C
:1049C0001B683B61114B1B687B61FB780C2B0DD97D
:1049D000FB78786800211A4608F030F907F10C03DB
:1049E000786819460C2208F003F907E0FB7807F114
:1049F0000C02786811461A4608F0FAF81837BD46D6
:104A000080BD00BFF0F7FF1FECF7FF1FE8F7FF1FA7
:104A100080B584B000AF786039607B68002B12D01D
:104A20003B681B68FB6008E07B6830331846F96818
:104A300004F064F9FB689B69FB60FB68002BF3D111
:104A40003B6800221A601037BD4680BD80B58AB031
:104A500002AFB9607A601A460346FB731346BB7314
:104A6000FB7B184602F000FA0346002B01D000231E
:104A700093E04C4804F012F978617B69002B01D176
:104A800000238AE04FF4E06002F0B8F938613B6936
:104A9000002B01D1002380E0BB7B032B01D9032332
:104AA000BB737B69FA7B1A707B6900225A707B6941
:104AB00000229A707B690022DA707B6900225A60BA
:104AC0007B6900221A727B69BA68DA607B697A684E
:104AD0001A610023FB7709E0FB7F7A690233DB0070
:104AE000134400221A72FB7F0133FB77FB7F022BFA
:104AF000F2D97B69BA7B83F82C207B693033184666
:104B00001C21002204F05CF87B69303318463969B7
:104B1000402204F073F87B693C33184601F04EFFE5
:104B20007B6940331846002102F020FE7B6903F1C7
:104B30004C0197F8283097F82C2002FB03F31A4811
:104B4000142203F029FB7B6903F18C02BB7B16481E
:104B50001146042203F020FB7B6903F1CC024FF6DF
:104B6000FF730093002301930F4811460F4A7B699E
:104B700003F09EF97B690022C3F8E0200C4BBB6177
:104B800003E0BB691B68E033BB61BB691B68002B9A
:104B9000F7D1BB697A691A607B6918462037BD4630
:104BA00080BD00BF000A00203C0A0020854E00089E
:104BB000E413002080B588B000AF786004F0FCFFFB
:104BC0000023FB7700237B770023BB610023FB7569
:104BD00037E0FB7D7A680233DB0013441B7A002B3D
:104BE00004D10123FB77FB7DBB7727E0FB7D7A684F
:104BF0000233DB0013441B7A012B07D0FB7D7A685C
:104C00000233DB0013441B7A022B17D1FB7D7A6839
:104C10000233DB0013445B68184602F075F8386114
:104C20007B7F83F00103DBB2002B03D13A69BB69C0
:104C30009A4201D93B69BB6101237B77FB7D01333C
:104C4000FB757B6893F82C30FA7D9A42C1D3FB7FC9
:104C500083F00103DBB2002B30D17B683C33184674
:104C600001F02EFFF860FB68002B27D07B7F83F0DC
:104C70000103DBB2002B06D1F86802F045F80246CA
:104C8000BB699A421AD97B683C33184601F024FF6D
:104C9000BB7F7A680233DB001344FA685A60BB7F3B
:104CA0007A680233DB00134401221A727B681B69A5
:104CB000DB687A68D068FA68B97F98472037BD46C4
:104CC00080BD00BF80B582B000AF786002F05AF8B6
:104CD0007868FFF76FFF02F05DF80837BD4680BDCA
:104CE00080B586B000AF786004F066FF02F06EF821
:104CF00003467B824FF6FF73FB8200237B751DE02A
:104D00007B7D7A680233DB0013441B7A012B12D1BE
:104D10007B7D7A680233DB0013445A687B8A104635
:104D2000194601F07BFF03463B823A8AFB8A9A428E
:104D300001D23B8AFB827B7D01337B757B6893F8D4
:104D40002C307A7D9A42DBD30023BB600DE0BA6839
:104D50007B8A1046194601F061FF0346FB81FA8900
:104D6000FB8A9A4201D2FB89FB827B6803F13C02F9
:104D700007F108031046194601F074FE0346002BA4
:104D8000E5D17B6803F1CC02FB8A044811461A4640
:104D900003F0C8F81837BD4680BD00BF3C0A0020AC
:104DA00080B582B000AF786001F0ECFF7868FFF763
:104DB00097FF05F0F1FA01F0EDFF0837BD4680BD21
:104DC00080B588B002AFF860B96011461A460B464C
:104DD000FB711346BB8004F0EFFEBB685B69002BE0
:104DE00017D0FB799BB2BB82BB88002B14BF012379
:104DF0000023DBB2BB75FB6803F18C01BB685A6909
:104E000007F114030093084611460422054B00F0F5
:104E1000E9FFFB6830331846B96803F051FF1837D3
:104E2000BD4680BDA978000880B586B000AFF860A7
:104E3000B96011461A460B46FB711346BB80BB682E
:104E40005B69002B12D0FB799BB2BB82BB88002B25
:104E500014BF01230023DBB2BB75BB685A6907F19D
:104E6000140310460421064A02F066FDFB68303345
:104E70001846B96803F042FF1837BD4680BD00BF31
:104E8000A978000880B586B000AF7860786803F034
:104E9000ABF838610023FB752DE001F073FFFB7D5B
:104EA0003A690233DB0013441B7A012B1ED1FB7DD0
:104EB0003A690233DB0013445B68184601F098FE40
:104EC0000346002B12D03B691B699B683A69D16885
:104ED000FA7D0846114698470346002B06D0FB7D15
:104EE0003A690233DB00134402221A7201F052FFC6
:104EF000FB7D0133FB753B6993F82C30FA7D9A42B8
:104F0000CBD307E001F062FF03463869F96800225D
:104F1000FFF78AFF3B693C33184601F01FFEF8603B
:104F2000FB68002BEED13869FFF7CCFE3869FFF73C
:104F300037FF1837BD4680BD80B582B000AF7860BE
:104F4000084611461A460346FB700B46BB701346D3
:104F50003B8004F031FEFB787A680233DB001344B7
:104F60001B7A012B0AD0FB787A680233DB001344EA
:104F70001B7A022B02D00D4804F040FDFB787A68C2
:104F80000233DB0013445968BA783B887868FFF72E
:104F900017FFFB787A680233DB00134400221A7291
:104FA0007868FFF707FE0837BD4680BDB0D100081E
:104FB00090B587B000AFF860B9607A6004F0FCFD8E
:104FC0007B687B61BB683B617B695B683A691446BF
:104FD0000FCB84E80F007B691A883B691A821C3763
:104FE000BD4690BD80B588B002AFF8607B600B46CF
:104FF000FB7213463B8104F0DFFD3B893B827B68FB
:105000007B61FB6803F14C01FB6803F1400207F18F
:1050100010030093084611461422044B00F0E2FEF0
:10502000FB6801221A721837BD4680BDB14F0008D7
:105030002DE9B04F86B000AFF860F9680C464FF02C
:105040000005204629464FEA810B4BEA907B4FEA48
:10505000800A504659464B0143EAD0634201121A76
:1050600063EB0103A41845EB030522462B46990088
:105070007960796841EA9271796091003960D7E985
:105080000001801841EB030102460B464FEA031969
:1050900049EA12794FEA021842464B461046194631
:1050A000114A4FF00003121843EB01031046194652
:1050B0000E4A4FF00003FEF727F902460B46C7E9F8
:1050C0000423D7E904234FF6FE704FF00001994204
:1050D00008BF904202D2064804F090FC3B8A184672
:1050E0001837BD46BDE8B08F3F420F0040420F0069
:1050F000E4D1000880B485B000AF78600023FB7372
:105100000BE0FB7B0A4A52F823207B689A4201D1CC
:10511000012306E0FB7B0133FB73FB7B032BF0D900
:10512000002318461437BD465DF8047B704700BF66
:10513000D4D1000880B586B002AF384BFB600123A4
:10514000FB72374803F016FB03469A785208D2B236
:10515000D978C9010A431979C9030A435B79DB0588
:1051600013431846FFF7C6FF0346002B10D02C4808
:1051700003F000FB03469A785208D2B2D978C901ED
:105180000A431979C9030A435B79DB051343FB60C2
:10519000234803F0EFFA03469B7803F00103DBB2E8
:1051A000002B01D00023FB720023BB720DE0BB7A01
:1051B0001C4A52F82320FB689A4203D11A4ABB7A50
:1051C000137005E0BB7A0133BB72BB7A032BEED9B7
:1051D00000237B6007E07A68FB7A104619460122BB
:1051E000FB6801F029FF3B1D184601F015FE034640
:1051F000002BF0D1FB7A002B0CD00848FFF718FFEA
:10520000034600930023019308480949094A0023F3
:1052100002F04EFE1037BD4680BD00BF40420F0079
:1052200060310008D4D10008E8130020200A0020D3
:10523000EC1300203952000880B584B000AF7860CC
:10524000204B1B780133DBB203F00303DAB21D4BB2
:105250001A700123FB730023BB6019E0BB6818467A
:1052600001F0A0FE0346002B05D0BB6818460021C4
:1052700001F032FE0CE0BA68124B1B781946124B53
:1052800053F821301046194601F06AFE0023FB73E3
:1052900007F10803184601F0BFFD0346002BDDD1DE
:1052A000FB7B83F00103DBB2002B08D00748FFF73C
:1052B000BFFE0346064879681A4602F049FE1037D9
:1052C000BD4680BDE8130020D4D1000840420F0045
:1052D000200A002080B483B000AF20237B607B686D
:1052E00083F311880C37BD465DF8047B704700BF1F
:1052F00080B483B000AF00237B607B6883F31188A8
:105300000C37BD465DF8047B704700BF80B500AF29
:10531000FFF7E0FF04F0C0FB80BD00BF80B500AF29
:1053200004F0D0FB094B1B68084A93420AD0074B94
:105330009B699A68054B1B689B689A4202D2044895
:1053400004F05CFBFFF7D4FF80BD00BF30130020EA
:10535000FCD100082DE9B04F86B000AFF860F968C5
:105360000C464FF00005204629464FEA810B4BEAD8
:10537000907B4FEA800A504659464B0143EAD0637E
:105380004201121A63EB0103A41845EB0305224600
:105390002B4699007960796841EA927179609100B1
:1053A0003960D7E90001801841EB030102460B4642
:1053B0004FEA031949EA12794FEA021842464B466E
:1053C00010461946114A4FF00003121843EB01032F
:1053D000104619460E4A4FF00003FDF795FF0246AE
:1053E0000B46C7E90423D7E904234FF6FE704FF0BC
:1053F0000001994208BF904202D2064804F0FEFA2A
:105400003B8A18461837BD46BDE8B08F3F420F00B3
:1054100040420F00F0D1000880B582B000AF786044
:10542000396078683968002203F014FB0346184697
:105430000837BD4680BD00BF80B582B000AF786040
:1054400078680421002203F049FB03461846083718
:10545000BD4680BD80B582B002AF002000F018F8D4
:105460000748FFF777FF03460093012301930548A0
:105470000549064A002302F01BFDBD4680BD00BF62
:1054800040420F003C0A002000140020753D000837
:1054900080B58CB002AF0346FB71FB79184601F072
:1054A000E3FCF861FB69002B00F08A807420FFF7B1
:1054B000C3FFB861BB69002B00F08280B86900218E
:1054C000742207F0BBFBBB69FA695A608020FFF7C2
:1054D000B3FF78617B69002B72D0BB69303318460B
:1054E00080217A69FEF7CAFD4FF44070FFF7A4FFF0
:1054F0000246BB69DA62BB69DB6A002B60D0BB691C
:1055000003F10801BB69DA6A304B0093BB69019370
:10551000084611464FF440722D4B05F009FFBB6958
:105520005B68184601F0C0FC38613B69002B47D02E
:10553000BB6903F13802BB690093264811463A69FA
:10554000254B02F063FDBB695B681846002101F042
:10555000E5FCBB6900221A67204B7B6203E07B6A93
:105560001B6870337B627B6A1B68002BF7D17B6AF8
:10557000BA691A60B869FEF759FC03461A46BB6956
:105580001A70002387F82330154803F0F3F8F86009
:10559000FB68002B0DD0FB689B79002B09D0FB68C2
:1055A0009B79DBB25BB2002B03DBFB689B7987F84E
:1055B000233097F82330B869194600F0DFF802E08D
:1055C000002004F01BFA2837BD4680BDF13F0008DB
:1055D0005D3F00083C0A0020855D0008141400208F
:1055E0006031000880B483B000AF78607B68002B26
:1055F00001D1002314E07B681B68002B04D10B4B06
:105600001A687B681A6004E07B681B681A6F7B6805
:105610001A607B681B68002B14BF01230023DBB2D8
:1056200018460C37BD465DF8047B70471414002003
:1056300080B584B000AF786039607B68002B01D101
:10564000002342E0FFF762FE7B68DB6EFB6002E056
:10565000FB681B69FB60FB68002B04D0FB681A68C1
:105660003B689A42F4D1FB68002B04D0FFF756FE4A
:10567000FB68043329E0174803F0E4FAF860FB689C
:10568000002B03D1FFF74AFE00231EE0FB683A68B7
:105690001A60FB6804331846002102F067F8FB68C3
:1056A00000221A617B686C33BB6003E0BB681B6837
:1056B0001033BB60BB681B68002BF7D1BB68FA686E
:1056C0001A60FFF72BFEFB68043318461037BD46FF
:1056D00080BD00BF0C0A002080B582B000AF034639
:1056E0003960FB71FB791846FEF760FB03461846EC
:1056F0003968FFF79DFF034618460837BD4680BD51
:1057000080B483B000AF786039603B68002B02D072
:105710003B681B8900E0002318460C37BD465DF846
:10572000047B704780B584B000AF78607B68002B45
:1057300001D100230BE0FFF7E9FD7B680833184631
:1057400005F052FE0346FB73FFF7E8FDFB7B1846AE
:105750001037BD4680BD00BF80B582B000AF0346A4
:10576000FB71FB791846FEF721FB03461846FFF74D
:10577000D9FF034618460837BD4680BD80B582B0C4
:1057800000AF78600B46FB707B68002B17D07B68FE
:105790005A68FB78002B14BF01230023DBB21046AC
:1057A000194601F0BBFBFFF7B1FD7B6803F108026E
:1057B000FB781046194605F0FDFDFFF7AFFD0837F1
:1057C000BD4680BD80B582B000AF03460A46FB717E
:1057D0001346BB71FB791846FEF7E8FA0246BB791F
:1057E00010461946FFF7CAFF0837BD4680BD00BF07
:1057F0002DE9704F01F00706089C324496424FEAAB
:10580000D1014FEAD40904F0070C2DD008444FF41D
:105810007F4106F0070B0CF007055D452C4638BFAD
:105820005C46C6EB020EC4F10804A64528BFA64696
:10583000F40810F804A009EBDC0821FA0EF40AFAC7
:105840000BFAE4B213F808B04AFA05FA44FA05F57F
:1058500005EA0A0A2BEA050476444AEA0404B2423D
:10586000F44403F80840D4D1BDE8708F1378002BBE
:1058700046D1002944D02DE9704FD46882B00E463D
:1058800080461546002C50D04FF0000B05F1080A59
:1058900017E06A68AB6850685146D3F8189001F079
:1058A0002BFCE86068B3047244728472C47204739F
:1058B00044738473C473B9F1000F27D02C615E4523
:1058C00021D92A69CBEB0604C2F138039C4228BFD8
:1058D0001C46002CDDD0EB68594600920833224666
:1058E0004046FFF785FF2B69EA6823442B610733A5
:1058F0001178DB08013363F38501A3441170DEE7FF
:10590000704701232B7002B0BDE8708FAA68EB6866
:10591000B2F80D1005221981A96801F10A000831B9
:1059200007F071F910232B61C9E7536802F10801F0
:10593000586801F0E1FBE8600028E2D0047244728C
:105940008472C472047344738473C4739CE700BF8D
:1059500080B58EB000AFF860B96011461A460B46AC
:10596000FB8013467B71FB68002B09D0BB68002BC2
:1059700006D0BB685B69002B02D0BB6C002B01D149
:1059800000237FE1F868FFF7CDFE0346002B08D126
:10599000FB88032B03D8BB689B7A022B01D0002322
:1059A00070E1BB689B7A022B04D0FB88FF2B01D9E6
:1059B000002367E1F868FFF7B5FE0346DBB25BB290
:1059C000002B01DA00235DE100233B76FB68FB61DD
:1059D00000233B6200237B620023BB62BB685B69E0
:1059E00007F11802B86CA94998473B7E002B02D1F9
:1059F0003B6A002B0AD1FB685A6807F11803083389
:105A000010461946FFF704F800233BE1A04B0222A1
:105A10001A6100237B637B7903F01F031B067A6BFB
:105A200013437B63BB689B7A022B05D1FB881B0267
:105A30007A6B13437B6318E0FB881B041A467B6B6D
:105A400013437B63BB689B7A012B03D17B6B43F4CD
:105A500000437B6397F844301B021A467B6B134369
:105A60007B637B6B43F080037B63F868FFF75AFE30
:105A70000346002B10D13B6A0833184607214FF626
:105A8000FF7201F08BFB03461A464FF6FC7313407E
:105A90001B027A6B13437B63F868FFF743FE0346F0
:105AA0001A467B6B13437B63002387F833303B6AD2
:105AB000FB6288E0FA6A137843F002031370FA6A13
:105AC00013786FF3000313707B6B23F06041FA6A65
:105AD000536861F31C0353603A6AFB6A9A4215D11A
:105AE000FB6A1B78C3F38303DBB2013BFA6A1278CB
:105AF000C2F38302D2B2013AF96A0A44127A62F01E
:105B00007F02D1B2FA6A13440A461A727A6AFB6AB1
:105B10009A4215D1FB6A1B78C3F38303DBB2013BC6
:105B2000FA6A1278C2F38302D2B2013AF96A0A44DD
:105B3000127A42F04002D1B2FA6A13440A461A724B
:105B4000FB6A1B78C3F38303DBB2013BFA6A12786A
:105B5000C2F38302D2B2013AF96A0A44127AD1B28C
:105B600097F833205201D2B20A43D2B2D1B2FA6AC4
:105B700013440A461A72FB6A1B78C3F38303DBB231
:105B8000013BFA6A1278C2F38302D2B2013AF96A8F
:105B90000A44127AD1B297F8402002F01F02D2B222
:105BA0000A43D2B2D1B2FA6A13440A461A7297F87B
:105BB0003330002B0CBF01230023DBB287F83330D6
:105BC000FB6A9B69FB62FB6A002B7FF473AF3A6A46
:105BD0007B6A9A4246D0BB68184608214FF6FF728E
:105BE00001F0DCFA0346FB823B6AFB62FB6A03F1CD
:105BF0000A02FB8A104605211A4601F0CFFA034635
:105C0000FB82FB6A9B69FB620DE0FB6A03F1080201
:105C1000FB8A104607211A4601F0C0FA0346FB82B0
:105C2000FB6A9B69FB62FB6A9B69002BEDD1FB6AF7
:105C300003F10802FB6A1B78C3F38303DBB2013B69
:105C40001946FB8A10461A4601F0A8FA0346FB8261
:105C50003B6A03F1080207F11603104619460222B7
:105C600006F0C6FFFB685A6807F1180308331046B0
:105C700019464FF6FF72002301F052FA044B02223C
:105C80005A61012318463837BD4680BD6D5800085B
:105C9000000C014090B58DB004AFB9607B60034645
:105CA000FB731346BB73FB7B1846FEF77FF8F86166
:105CB000FB69002B01D100232BE0BB681B897B8390
:105CC000FFF724FBFB6903F130027B8B10460021B8
:105CD0001A460023FEF7F2F97861FFF71FFB7B6994
:105CE0001B787A8BBC7B0093002301937B68029323
:105CF000F869B9682346FFF72BFE0346002B07D04F
:105D00007B691B780133DAB27B691A70012300E0EA
:105D1000002318462437BD4690BD00BF90B58DB016
:105D200004AF0346B9607A60FB73FB7B1846FEF74D
:105D30003DF8F861FB69002B01D100231DE0BB6831
:105D40005B68DB69BB61BB68DB7AFB75BB689B7A10
:105D5000BB75BB681B7B7B75BB691B897B827A8AA1
:105D6000FC7DBB7D00937B7D01937B680293F8698A
:105D7000B9692346FFF7ECFD034618462437BD46B4
:105D800090BD00BF80B58CB000AFF860B9607A609C
:105D90007B68FB62BB68BB6211480821062202F0E7
:105DA000AFFB0F4B08221A61BB6A07F110021046C5
:105DB0001946FEF75BF801F0A3FAC7E90801FB6A90
:105DC00003F1080207F1100310461946D7E908232A
:105DD00005F016FB024B08225A613037BD4680BDE4
:105DE000000C014080B586B000AFF860B9607A6001
:105DF0003B6003F0E1FEFB681A687B689A4201D2BF
:105E000000232CE0FB680433184602F01BFF786186
:105E10007B69002B02D0BB68002B01D100231EE060
:105E20007B69BA681A607B697A685A603B68002BA4
:105E300007D07B6903F108023B68786811463A6A2B
:105E40009847FB6803F110027B691046194603F07E
:105E50005BFDFB689B6B184600F0BEF801231846FB
:105E60001837BD4680BD00BF80B588B000AF7860F0
:105E70007B681B68184601F04BFF7B685B6818461F
:105E800003F0E6F801F038FF02467B689A6001F003
:105E900007FF7B689B69FB6101F00AFF25E0FB6857
:105EA0001968FB685A68FB68083308461146434A7C
:105EB00001F042FDFB691A1DFB681046194602F00D
:105EC0001DFFFB6903F1100207F10C031046194690
:105ED000002202F001FD0346002BE0D001F0E0FEBD
:105EE000FB69DB6BFB6101F0E3FEFB69002BE8D192
:105EF00001F0D6FE7B685B69BB6101F0D9FE0EE064
:105F0000BB691846002101F0A3FD0346002B09D10F
:105F100001F0C6FEBB691B6BBB6101F0C9FEBB692A
:105F2000002BEDD101F0BCFE01F0DEFE0346FB824A
:105F30007B681A69FB8A1046194600F0E9F80346A7
:105F4000BB82BB8A002B1CD17B681B693B613B6910
:105F50001A697B681A6101F0ABFE3B691B683869FE
:105F600098473B69FA8A5A813B691B7B002B8ED08C
:105F700001F096FE7868396900F08AF801F098FE21
:105F800085E7786800F05AF90346002B02D001F04B
:105F90008FFE7CE7786800F001F90346002B02D001
:105FA00001F086FE73E77B6803F10C02BB8A1046A2
:105FB000194603F081F801F07BFE68E7A978000834
:105FC00080B584B000AF78607B68FB60F868FFF74D
:105FD0004BFF1037BD4680BD80B582B000AF786002
:105FE00003F0EAFD7B680C3318464FF0FF3103F0F5
:105FF0008BF80837BD4680BD80B582B000AF7860B1
:106000007B680C3318464FF0FF3103F0BFF80837B8
:10601000BD4680BD80B485B000AFF860084611462B
:106020001A4603467B810B463B811346FB71FB6896
:10603000BA691A60FB68FA695A60FB683A891A8182
:10604000FB68FA791A73FB687A895A811437BD465E
:106050005DF8047B704700BF80B584B000AF786006
:10606000396003F0A9FD7B681B69FB6008E0FA68F2
:106070003B689A4201D1012306E0FB681B69FB6083
:10608000FB68002BF3D1002318461037BD4680BDB6
:1060900080B584B000AF7860396003F08DFD78681A
:1060A0003968FFF7D9FF0346002B02D0174803F0E9
:1060B000A5FC3B681B894FF6FF72934222D03B68D8
:1060C0005A893B681B8913447B817B681033FB60D2
:1060D00003E0FB681B681033FB60FB681B68002B48
:1060E00009D07B89FA68126852899B1AFA6812688B
:1060F00012899342EDDAFB681A683B681A61FB6803
:106100003A681A601037BD4680BD00BF24D1000830
:1061100080B584B000AF78600B467B8003F04CFD07
:106120007B68002B17D07B681B894FF6FF72934268
:1061300011D07B685B897A88D31AFB817B681B89C5
:10614000FA899A4201D3002307E07B681A89FB8908
:10615000D31A9BB201E04FF6FF7318461037BD46C5
:1061600080BD00BF80B584B000AF7860396003F0B7
:1061700023FD7B689B69FB6008E0FA683B689A42F4
:1061800001D1012306E0FB68DB6BFB60FB68002BA1
:10619000F3D1002318461037BD4680BD80B584B0CA
:1061A00000AF786003F008FD7B689B69FB600CE042
:1061B000FB681033184601F0BBFD0346002B01D0ED
:1061C000012306E0FB68DB6BFB60FB68002BEFD173
:1061D000002318461037BD4680BD00BF80B584B08F
:1061E00000AF7860396003F0E7FC7B685B69FB60B7
:1061F00008E0FA683B689A4201D1012306E0FB6897
:106200001B6BFB60FB68002BF3D100231846103793
:10621000BD4680BD80B584B000AF7860396001F0C4
:106220003FFD78683968FFF7D9FF0346FB7301F03B
:106230003FFDFB7B18461037BD4680BD80B584B05E
:1062400000AF786003F0B8FC7B685B69FB600BE033
:10625000FB68184601F016FB0346002B01D0012312
:1062600006E0FB681B6BFB60FB68002BF0D1002392
:1062700018461037BD4680BD80B483B000AF2023E0
:106280007B607B6883F311880C37BD465DF8047B27
:10629000704700BF80B483B000AF00237B607B6891
:1062A00083F311880C37BD465DF8047B704700BF4F
:1062B00080B500AFFFF7E0FF80BD00BF80B500AF45
:1062C000FFF7E8FF80BD00BF80B400AF4FF0804310
:1062D0005B6A9BB21846BD465DF8047B704700BF01
:1062E00080B500AFFFF7F0FF0346184680BD00BF42
:1062F00080B500AFFFF7DCFF03F0FAFB80BD00BF05
:1063000080B500AF03F00AFCFFF7D8FF80BD00BFE7
:1063100080B500AFFFF7E4FF0346184680BD00BF1D
:1063200080B582B002AF094B094A5A60022300933C
:106330000323019300200549064A0323FEF786FB49
:106340000246024B1A60BD4680BD00BFDC13002030
:106350000064004048D1000880B58CB000AFF86000
:106360007B600B46FB721346BB72FB68BB62844AC0
:10637000834BDB6943F00073D361BB6A5A68BB6A25
:106380005B68D3F800321B0C1B0443F00103C2F816
:106390000032BB6A5B680022C3F84022BB6A5B68BC
:1063A0000022C3F84422BB6A5B680022C3F80422BF
:1063B000BB6A5B680022C3F81422BB6A5B680122D7
:1063C000C3F80C22BB6A5B680122C3F81C22BB6ABB
:1063D0005B68BA6A5268D2F8002222F00102C3F860
:1063E000002213200B2101F067FF14200B2101F084
:1063F00063FF16200B2101F05FFFBB6A5B6801227F
:106400001A6000E000BFBB6A5B685B6803F00103D1
:10641000002BF7D07B685B4A934201D90A2300E046
:10642000112387F82730584A7B68B2FBF3F33B62AD
:1064300097F82730013B87F82E3009E097F82E3087
:10644000022B40F2998097F82E30013B87F82E30CE
:1064500097F82E3001331A463B6AB3FBF2F102FB88
:1064600001F29B1A002BE9D197F82E3001331A461E
:106470003B6AB3FBF2F3FB61FB69002B7CD0FB6949
:10648000B3F5806F78D897F82E201346DB009B1A5F
:106490000333002B00DA0733DB1087F82F304FF47B
:1064A00061737B837B68374A934202D940F2EE23C3
:1064B00001E040F252333B8397F82F3001334FF421
:1064C0007A7202FB03F297F82E30013392FBF3F25B
:1064D0007B8B9A4204DB97F82F30013B87F82F30F3
:1064E00097F82F3001334FF47A7202FB03F297F8DA
:1064F0002E30013392FBF3F23B8B9A4204DA97F889
:106500002F30013387F82F3097F82F3001334FF4B5
:106510007A7202FB03F297F82E30013392FBF3F20A
:106520007B8B9A4228DA97F82E2097F82F30D31ACF
:10653000FB75BB6A5B68FA7A002A02D04FF0004212
:1065400000E0002297F82F10013909040A43F97D71
:10655000013909051143FA69013A0A43DA61BB6A54
:106560005B68BA7A002A01D0602200E070221A60CB
:10657000BB6A5B6803225A613037BD4680BD00BFED
:10658000001002403F420F000051250280B584B048
:1065900000AF78607B68FB60FB685B680B4A1A6041
:1065A000FB685B6800225A61132001F0B3FE1420DF
:1065B00001F0B0FE162001F0ADFE054A044BDB6988
:1065C00023F00073D3611037BD4680BD0200010087
:1065D0000010024080B584B000AF78600B46FB70BD
:1065E0007B68FB6003F0E8FAFB78012B09D0022BF3
:1065F0000ED0002B13D1FB685B6880229A600123C8
:106600000EE0FB685B684FF400429A60012307E0EC
:10661000FB685B684FF400029A60012300E00023EE
:1066200018461037BD4680BD80B586B000AFF86013
:106630000B467A60FB72FB687B6103F0BDFA7B69F5
:106640005A68FB7A18331B0113443B617B681B7843
:10665000C3F38303DBB21A463B695A607B689A68CE
:106660003B699A607B68DA683B69DA607B681B7813
:1066700003F00203DBB2002B14D07B685B68C3F32A
:106680001C03DA007B681B7803F00103DBB2002BEC
:1066900001D0022300E00023134343F005023B69CD
:1066A0001A6014E07B689B88C3F30A039BB25A0507
:1066B0007B681B7803F00103DBB2002B01D00223BF
:1066C00000E00023134343F001023B691A600123F9
:1066D00018461837BD4680BD80B483B000AF7860DF
:1066E00039603B689A687B689A603B68DA687B68C7
:1066F000DA603B681B6803F00203002B14BF012320
:106700000023D9B27A68137861F3000313703B68F1
:106710001B6803F00403002B14BF01230023D9B22C
:106720007A68137861F3410313707B681B7803F078
:106730000203DBB2002B0AD03B681B68DB0823F0A6
:1067400060417A68536861F31C0353600BE03B6857
:106750001B685B0D9BB2C3F30A0399B27A689388F6
:1067600061F30A0393803B685B68DBB203F00F03BD
:10677000D9B27A68137861F3850313700C37BD467C
:106780005DF8047B704700BF80B58CB000AF7860C7
:10679000FFF7BEFD0346FB85FFF7AAFD7B685B683C
:1067A000DB6803F00303002B02D1FFF7A9FD19E01A
:1067B0007B685B6803F5D87307F10C021046194635
:1067C000FFF78AFF7B681968FA8D07F10C0308460A
:1067D0000021FEF707FC7B685B682022DA60FFF788
:1067E0008FFDD9E7FFF784FD7B685B681B6903F0C9
:1067F0000303002B02D1FFF783FD19E07B685B6880
:1068000003F5E07307F11C0210461946FFF764FF19
:106810007B681968FA8D07F11C0308460121FEF711
:10682000E1FB7B685B6820221A61FFF769FDD9E70D
:106830003037BD4680BD00BF80B584B000AF786002
:10684000FFF766FD0346FB81FFF752FD7B685B683F
:106850009B6803F00103002B14D07B6819687B68E8
:106860005B689B6803F00203002B14BF0123002325
:10687000DAB2FB8908460021FEF75EFB7B685B68A5
:1068800001229A607B685B689B6803F48073002B2D
:1068900015D07B6819687B685B689B6803F400739C
:1068A000002B14BF01230023DAB2FB890846012123
:1068B000FEF742FB7B685B684FF480729A607B68EE
:1068C0005B689B6803F48033002B15D07B681968E4
:1068D0007B685B689B6803F40033002B14BF0123C3
:1068E0000023DAB2FB8908460221FEF725FB7B680C
:1068F0005B684FF480329A60FFF702FD1037BD46A7
:1069000080BD00BF80B500AF03F01EF90348FFF75C
:1069100093FF03F035F902F03FFA80BDDC1300204D
:1069200080B500AF03F010F90348FFF72DFF03F027
:1069300027F902F031FA80BDDC13002080B483B067
:1069400000AF20237B607B6883F311880C37BD4642
:106950005DF8047B704700BF80B483B000AF0023B4
:106960007B607B6883F311880C37BD465DF8047B40
:10697000704700BF80B500AFFFF7E0FF03F08CF871
:1069800080BD00BF80B500AF03F09CF8094B1B68C9
:10699000084A93420AD0074B9B699A68054B1B68CB
:1069A0009B689A4202D2044803F028F8FFF7D4FF0C
:1069B00080BD00BF301300206CD1000880B483B0CC
:1069C00000AF78607B6800221A60012318460C37FC
:1069D000BD465DF8047B704780B584B000AF786039
:1069E000396003F0E9F87868396800F0C9F80346BF
:1069F000002B02D0124803F001F8386800F084F947
:106A0000B8607B68FB6003E0FB681B681833FB60C1
:106A1000FB681B68002B08D0FB681B68184600F059
:106A200073F90246BB689A42EED2FB681A683B686B
:106A30009A61FB683A681A601037BD4680BD00BF96
:106A400058D1000880B582B000AF78603960FFF798
:106A500091FF78683968FFF7BFFFFFF793FF0837AA
:106A6000BD4680BD80B582B000AF7860396003F06C
:106A7000A3F83B68002B02D1104802F0BFFF3B682F
:106A8000002B01D1002314E03B681B68002B04D1CC
:106A90007B681A683B681A6004E03B681B689A6967
:106AA0003B681A603B681B68002B14BF012300235E
:106AB000DBB218460837BD4680BD00BF78D100085C
:106AC00080B582B000AF786003F076F87B681B6811
:106AD00018460837BD4680BD80B582B000AF7860EB
:106AE00003F06AF87B681B68002B04D07B681B6886
:106AF0009A697B681A600837BD4680BD80B584B04E
:106B000000AF786003F058F80023FB607B68BB603F
:106B100003E0BB681B681833BB60BB681B68002BB5
:106B20000AD0BB681B68184600F062F8034683F081
:106B30000103DBB2002BECD1BB681B68002B07D034
:106B4000BB681B68FB60BB681B689A69BB681A60FE
:106B5000FB6818461037BD4680BD00BF80B584B0C5
:106B600000AF7860FFF706FF7868FFF7C7FFF860AF
:106B7000FFF708FFFB6818461037BD4680BD00BF11
:106B800080B584B000AF786039600023FB6005E019
:106B9000FB683A689A4201D1012309E007F10C032E
:106BA00078681946FFF75EFF0346002BF0D10023FB
:106BB00018461037BD4680BD80B400AF4FF080430B
:106BC0005B6A9BB21846BD465DF8047B704700BF08
:106BD00080B500AFFFF7F0FF0346184680BD00BF49
:106BE00080B500AFFFF7F4FF0346184680BD00BF35
:106BF00080B582B000AF7860FFF7F2FF03461A4617
:106C00007B681B8AD31A7A68528A9342CCBF0123CD
:106C10000023DBB218460837BD4680BD80B485B07E
:106C200000AF78600B467B807B685B8A4FF6FF7213
:106C3000934202D14FF6FF7310E07B681B8A7A887B
:106C4000D31AFB817B685B8AFA899A4201D90023B7
:106C500004E07B685A8AFB89D31A9BB21846143722
:106C6000BD465DF8047B704780B485B000AF7860A6
:106C70000023FB607B681B7803F00203DBB2002B70
:106C800026D07B685B68C3F31C039B145B051A4624
:106C9000FB681343FB60FB6843F48013FB60FB68F5
:106CA00043F40023FB607B685B68C3F31C03C3F3FE
:106CB00011035B001A46FB681343FB607B681B787B
:106CC000C3F30003DBB21A46FB681343FB6013E017
:106CD0007B689B88C3F30A039BB25B051A46FB687B
:106CE0001343FB607B681B78C3F30003DBB21B0517
:106CF0001A46FB681343FB60FB68DB4318461437F6
:106D0000BD465DF8047B704780B582B000AF786007
:106D10007B681846FFF7A8FF034618460837BD46AC
:106D200080BD00BF80B483B000AF20237B607B6850
:106D300083F311880C37BD465DF8047B704700BFB4
:106D400080B483B000AF00237B607B6883F311883D
:106D50000C37BD465DF8047B704700BF80B400AFC0
:106D60004FF080435B6A9BB21846BD465DF8047BDA
:106D7000704700BF80B500AFFFF7F0FF034618462D
:106D800080BD00BF80B500AFFFF7CCFF02F084FEEE
:106D900080BD00BF80B500AF02F094FE094B1B68B8
:106DA000084A93420AD0074B9B699A68054B1B68B7
:106DB0009B689A4202D2044802F020FEFFF7C0FF0F
:106DC00080BD00BF30130020A4D1000880B500AF03
:106DD000FFF7D0FF0346184680BD00BF80B582B0E4
:106DE00000AF7860396078683968002201F032FEBF
:106DF000034618460837BD4680BD00BF80B582B047
:106E000000AF786078680421002201F067FE034635
:106E100018460837BD4680BD80B483B000AF7860A7
:106E20007B68002B01D1002315E07B681B68002BD9
:106E300004D10C4B1A687B681A6005E07B681B68FC
:106E4000D3F8E0207B681A607B681B68002B14BFB6
:106E500001230023DBB218460C37BD465DF8047BE6
:106E6000704700BFE413002080B485B000AF034634
:106E7000FB710C4B1B68FB600AE0FB681B78FA791E
:106E80009A4201D1FB6807E0FB68D3F8E030FB6071
:106E9000FB68002BF1D1002318461437BD465DF87E
:106EA000047B7047E413002080B582B000AF7860A7
:106EB0007B68002B02D1074802F0A0FD7B68002B05
:106EC00001D1002301E07B68403318460837BD46F6
:106ED00080BD00BF90D1000880B582B000AF78605F
:106EE0000B46FB707B68002B14D0FFF74BFF7B68D1
:106EF0005B78002B0CD07B689B78FA789A4207D09D
:106F00007B68DA787B685B68F978786800F05CF811
:106F1000FFF740FF0837BD4680BD00BF80B582B097
:106F200000AF78600B46FB707B68002B14D0FFF736
:106F300029FF7B685B78002B0CD07B68DB78FA78C4
:106F40009A4207D07B6899787B685B68FA787868A2
:106F500000F03AF8FFF71EFF0837BD4680BD00BFBE
:106F600080B582B000AF786039607B68002B16D0A6
:106F7000FFF708FF7B685B78002B0ED07B685A68B0
:106F80003B689A4209D07B689A787B68DB7878689E
:106F900011461A463B6800F017F8FFF7FBFE08376A
:106FA000BD4680BD80B483B000AF78607B68002BA5
:106FB00001D1002301E07B681B7A18460C37BD46DF
:106FC0005DF8047B704700BF90B585B000AFF860F6
:106FD0007B600B46FB721346BB7202F0EDFDFB6853
:106FE000002B26D0FB685B78002B02D0F86800F0FD
:106FF0003BF8FB681B691C68FB68D968FA7ABB7AA6
:10700000084611461A467B68A047FB6801225A7061
:10701000FB68FA7A9A70FB68BA7ADA70FB685A6889
:107020007B689A4202D0FB6800221A72FB687A6879
:107030005A601437BD4690BD80B584B000AFF8608B
:107040007B600B46FB721346BB72FFF79BFEFA7A1E
:10705000BB7AF86811461A467B68FFF7B5FFFFF761
:1070600099FE1037BD4680BD80B582B000AF786014
:107070007B68002B0DD07B685B78002B09D07B6888
:107080001B695B687A68D268104698477B68012262
:107090005A700837BD4680BD80B584B000AF7860B7
:1070A000396002F089FD7B68002B02D03B68002B21
:1070B00001D100231CE07B683033184601F0C2FD8B
:1070C000B860BB68002B01D1002311E0BB6800222F
:1070D0009A613B68FB6003E0FB681B681833FB6048
:1070E000FB681B68002BF7D1FB68BA681A60BB68A5
:1070F00018461037BD4680BD80B584B000AF7860BB
:107100003960FFF73FFE78683968FFF7C5FFF86020
:10711000FFF740FEFB6818461037BD4680BD00BF34
:1071200080B588B000AFF860B9603B601346FB8063
:10713000FB68002B2FD0FFF749FE03467B83BB681B
:107140001B68FB611BE0FB699B697B61FB697A8BB8
:107150001A82FB69FA885A82FB699B69002B03D16A
:10716000FB693A685A6102E0FB6900225A61FB68D8
:107170003C331846F969FFF765FC7B69FB61FB69E5
:10718000002BE0D1BB6800221A60F868FDF79AFD79
:10719000F868FDF705FE2037BD4680BD80B487B096
:1071A00000AFF860B9601346FB8000237B6126E0E6
:1071B000FA687B6913441B781B029AB2FB88534020
:1071C0009BB2FB8000233B6113E0FB881BB2002BCA
:1071D00009DAFB885B009BB283F4815383F00103DF
:1071E0009BB2FB8002E0FB885B00FB803B690133C4
:1071F0003B613B69072BE8DD7B6901337B617A6981
:10720000BB689A42D4D3FB8818461C37BD465DF84C
:10721000047B704780B500AF02F0BEFB80BD00BFAD
:1072200080B500AF01F0F2FD80BD00BF80B400AFBB
:107230004FF080435B6A9BB21846BD465DF8047B05
:10724000704700BF80B500AFFFF7F0FF0346184658
:1072500080BD00BF80B500AFFFF7F4FF03461846BE
:1072600080BD00BF80B582B002AF48F2A06300933A
:107270000123019303480449044A002300F018FE47
:10728000BD4680BD200A0020C4130020BD73000845
:1072900080B584B000AF164B1B78FB73FFF7DAFFA5
:1072A0000346BB81BB89FA7B124912010A440832AA
:1072B00012889B1ABB60B868FCF7B4FB03461846FB
:1072C0000D49FCF707FC03461846FBF7FDFF034694
:1072D0007B60FB7B074A1B011344D3E90023074B68
:1072E00003FB02F27B68134418461037BD4680BD8D
:1072F000C0130020A01300200000C84240420F002D
:107300002DE9B04F84B000AF294B1B78FB73FFF71A
:10731000A1FF0346BB81BB89FA7B264912010A44BF
:10732000083212889B1ABB60B868FCF77BFB0346E7
:1073300018462149FCF7CEFB03461846FBF7C4FF6D
:1073400003467B60FB7B1B4A1B011344D3E900010E
:1073500002460B464FEA432B4BEAD25B4FEA422AE6
:1073600052465B465D0145EAD2655401A41A65EBBD
:107370000305241845EB01054FEA851949EA94698C
:107380004FEA8418B8EB040869EB050910EB080014
:1073900041EB09017B681A464FF00003121843EBDA
:1073A0000103104619461037BD46BDE8B08F00BF37
:1073B000C0130020A01300200000C84290B585B083
:1073C00000AF7860274B1B78DBB25A1C264B13406A
:1073D000002B03DA013B63F001030133FB73FFF77A
:1073E00039FF0346BB81BB891E4A1278D2B21F49BE
:1073F00012010A44083212889B1ABB60FC7B194BAD
:107400001B78DBB2194A1B011344D3E90001BB68A6
:10741000174AA2FB03235B0B1A464FF00003121816
:1074200043EB0103114821010144C1E90023F97B29
:10743000BA680F4BA3FB02035B0B42F2107000FB18
:1074400003F3D31A9BB2BA89D31A98B2074A0B0135
:107450001344083302461A80024AFB7B1370143728
:10746000BD4690BDC013002001000080A013002085
:107470005917B7D180B500AF084B1B68002B05D05A
:10748000064B1B6898470346002B01D0012300E000
:10749000002303F00103DBB2184680BDD81300209F
:1074A00080B485B000AFF860B9607A60FB68002BEB
:1074B0000ED07B68002B0BD0FB687A681A60FB68E3
:1074C000BA685A60FB6800229A60FB680022DA60A2
:1074D0001437BD465DF8047B704700BF80B584B0AB
:1074E00000AF786039607B68002B03D07B681B6835
:1074F000002B01D100236CE03B680833BB607B6844
:107500009B68002B08D07B689A687B689B685B68E7
:1075100008331344FB6002E07B681B68FB60FB6878
:10752000033323F00303FB607868F968BA6800F05E
:107530009BF8034683F00103DBB2002B1BD07B6872
:107540001B68033323F00303FB607868F968BA68AB
:1075500000F08AF8034683F00103DBB2002B01D070
:10756000002336E07B68DB681A467B689B689A429A
:1075700001D900232DE07B68DB68002B0FD07B68EE
:10758000DB681A46FB689A4209D37B68DB681946B8
:10759000FA68BB681344994201D2002319E0FB68E2
:1075A00000221A60FB683A685A607B689B68002B6F
:1075B00003D07B689B68FA681A607B68FA689A60F7
:1075C0007B68DB68002B02D17B68FA68DA60FB68B5
:1075D000083318461037BD4680BD00BF80B483B065
:1075E00000AF78607B68002B03D07B68DB68002BE2
:1075F00001D1002302E07B68DB68083318460C37B2
:10760000BD465DF8047B704780B483B000AF7860FE
:107610007B68002B01D1002302E07B68083B5B689C
:1076200018460C37BD465DF8047B704780B483B0C4
:1076300000AF78607B68002B11D07B68DB68002B83
:107640000DD07B689A687B68DB689A4202D17B68C0
:1076500000229A607B68DB681A687B68DA600C3706
:10766000BD465DF8047B704780B485B000AFF8601C
:10767000B9607A60FB68002B17D0FB681B68002B91
:1076800013D0BB68FA6812689A1AFB685B689A4262
:107690000BD2BA687B681344FA6812689A1AFB68BE
:1076A0005B689A4201D8012300E0002303F0010344
:1076B000DBB218461437BD465DF8047B704700BF47
:1076C00080B483B000AF20237B607B6883F3118894
:1076D0000C37BD465DF8047B704700BF80B483B0B3
:1076E00000AF00237B607B6883F311880C37BD46B5
:1076F0005DF8047B704700BF80B500AFFFF7E0FF87
:1077000002F0CAF980BD00BF80B500AF02F0DAF91F
:10771000094B1B68084A93420AD0074B9B699A6839
:10772000054B1B689B689A4202D2044802F066F936
:10773000FFF7D4FF80BD00BF3013002088D00008C1
:1077400080B584B000AFF860B9607A60FB68002B48
:1077500008D07B68002B05D0FB681846B9687A68AA
:10776000FFF79EFE1037BD4680BD00BF80B483B0DA
:1077700000AF786039607B68002B0DD03B68002B30
:1077800001D1084B3B607B6800221A607B683A6835
:107790005A607B6800229A600C37BD465DF8047B16
:1077A000704700BF580A002080B586B000AFF8606F
:1077B000B9607A603B60BB68002B36D0BB685B6801
:1077C000002B32D0FB68002B2FD0FB68BA681A6000
:1077D000FB6800225A60FB6800229A60FB687A68A6
:1077E000DA60FB683A681A61FB681833184601F0E2
:1077F00011FEFB680022DA62FB6800225A61FFF783
:107800007BFFFB680022DA62BB6808337B6103E020
:107810007B691B682C337B617B691B68002BF7D16C
:107820007B69FA681A60FFF76FFF1837BD4680BDA5
:1078300080B584B000AF78607B68002B1ED0FFF766
:107840005BFF7B681B680833FB6003E0FB681B6819
:107850002C33FB60FB681B68002B04D0FB681A68A4
:107860007B689A42F2D1FB681B68002B04D0FB684E
:107870001B68DA6AFB681A60FFF746FF1037BD46DF
:1078800080BD00BF80B483B000AF78607B685B6868
:10789000002B14BF01230023DBB218460C37BD4672
:1078A0005DF8047B704700BF80B584B000AFF8601E
:1078B000B9607A60B8687968FA6805F099F91037A4
:1078C000BD4680BD80B584B000AF78607B681B6822
:1078D0009B68FB607B681B681A687B689A4224D1AE
:1078E0007B681B6800221A601FE0FB685A687B688F
:1078F0009A4217D1FB681833184601F0A5FDFB68C2
:107900005A687B689A4208D17B685A68FB685A605B
:10791000FB685B695A1CFB685A61FB6818331846A0
:1079200001F0AEFEFB68DB6AFB60FB68002BDCD17C
:107930001037BD4680BD00BF80B588B000AFF8608D
:10794000B9607A603B60FB68002B7CD0FB685B68A9
:10795000002B78D0FB689B68002B74D0FFF7CCFE1F
:10796000FB685B681A46BB68083310461946FFF788
:10797000B5FDB861BB69002B19D1FB685B6818467F
:10798000FFF72CFE78617869FFF79CFFFB685B6866
:107990001846FFF723FE02467B699A4204D1FB6832
:1079A0005B681846FFF742FEFFF7AEFED6E7BB69FD
:1079B000FA681A60BB6900225A607B68002B07D006
:1079C000BB6903F108027B68B86811463A689847BA
:1079D000FB681B68002B0BD0FB681A68BB699A42D6
:1079E00002D11A4802F00AF8FB681B68BA695A60AB
:1079F000FB68BA691A60FB689B68FB6109E0FB6978
:107A00005B68002B02D1FB69BA695A60FB69DB6ACB
:107A1000FB61FB69002BF2D1FB689B68FB610DE009
:107A2000FB699B68002B06D0FB699A68FB691046CE
:107A3000194601F08BFBFB69DB6AFB61FB69002BDC
:107A4000EED1FFF761FE2037BD4680BD94D000081F
:107A500080B582B000AF78600B467B803A1D7B8892
:107A6000012011461A4600F005F80346184608376B
:107A7000BD4680BD80B588B000AFF860B9601346E0
:107A8000FB80FFF739FEFB88F868B9681A4600F0FA
:107A900043F8F861FB69002B27D0FB6918331846BF
:107AA00001F0D2FCFFF730FEFB695B68BB61BB698C
:107AB0005A68FB695A60FB69DB68002B0ED0B86915
:107AC000FFF7A2FD0346083B7B61FB69DB68BA69EF
:107AD00002F10801FA69126978699847FB6918335D
:107AE000184601F047FD012302E0FFF70DFE0023D9
:107AF00018462037BD4680BD80B483B000AF7860A3
:107B000039607B68002B02D07B683A689A600C373A
:107B1000BD465DF8047B704780B58CB000AFF8605F
:107B2000B9601346FB8002F059F80023FB621AE0AB
:107B3000BB68002B14D0FB6A9B00BA6813441B6817
:107B4000002B0DD0FB6A9B00BA6813441B685B686E
:107B5000002B05D0FB6A9B00BA6813441B686BE0DE
:107B6000FB6A0133FB62FA6AFB689A42E0D3FB8846
:107B7000002B01D100235FE000237B610023BB6267
:107B800014E0BB68002B0ED0BB6A9B00BA6813449C
:107B90001B68002B07D0BB6A9B00BA6813441B68A4
:107BA00007F114029A60BB6A0133BB62BA6AFB68D0
:107BB0009A42E6D307F11402FB881046194601F0F9
:107BC0007BFAB86100237B62BB69B3F1FF3F17D03A
:107BD00000233B6210E03B6A9B00BA6813441A68BA
:107BE000BB699A4205D13B6A9B00BA6813441B6883
:107BF0007B623B6A01333B623A6AFB689A42EAD392
:107C00000023FB6113E0BB68002B0DD0FB699B00D8
:107C1000BA6813441B68002B06D0FB699B00BA6846
:107C200013441B6800229A60FB690133FB61FA6907
:107C3000FB689A42E7D37B6A18463037BD4680BD61
:107C400080B483B000AF20237B607B6883F311880E
:107C50000C37BD465DF8047B704700BF80B483B02D
:107C600000AF00237B607B6883F311880C37BD462F
:107C70005DF8047B704700BF80B400AF4FF08043D5
:107C80005B6A9BB21846BD465DF8047B704700BF37
:107C900080B500AFFFF7F0FF0346184680BD00BF78
:107CA00080B500AFFFF7CCFF01F0F6FE80BD00BF4E
:107CB00080B500AF01F006FF094B1B68084A9342EC
:107CC0000AD0074B9B699A68054B1B689B689A42D0
:107CD00002D2044801F092FEFFF7C0FF80BD00BF52
:107CE00030130020D4D0000880B500AFFFF7D0FFDC
:107CF0000346184680BD00BF80B400AF034B9B69AC
:107D00001846BD465DF8047B704700BF3013002065
:107D100080B483B000AF7860044B9B697A689A6145
:107D20000C37BD465DF8047B704700BF3013002060
:107D300080B582B000AF786001F03EFF7B681B69C0
:107D400018460837BD4680BD80B584B000AF786066
:107D50003960FFF7A5FF78683968002200F07AFEE5
:107D6000F860FFF7A5FFFB6818461037BD4680BDD9
:107D700080B582B000AF786078680421002200F0FE
:107D800069FE034618460837BD4680BD80B582B0FF
:107D900000AF7860396001F00FFF7868396800F053
:107DA0008FFF0837BD4680BD80B584B000AFF86056
:107DB000B9607A60FB68002B02D10D4801F01EFE0D
:107DC000FB68BA681A60FB687A685A60FB68002230
:107DD0001A61FB6800225A61FB6800229A61FB6805
:107DE00000229A60FB680022DA601037BD4680BD31
:107DF000ACD0000880B58AB000AF786039607B688D
:107E0000002B02D1184801F0F9FD3B68BB3323F089
:107E1000070318460821FFF797FF78627B6A002B5B
:107E200002D1114801F0EAFD7B681B68FB607B6AA8
:107E30003B613B68BB3323F00703DB08DB007A6A56
:107E400013447B617B685B68BB61084BFB617B68AB
:107E50003B6207F10C03184601F0A6F802467B6866
:107E60009A602837BD4680BDC0D00008C15F0008B9
:107E700090B587B002AFF860B9607A603B6001F0FE
:107E80009BFEFFF731FF034619463A8C97F82440D2
:107E90007B6800933B680193B8682346FEF7BAF805
:107EA000F868B968FEF7F4F81437BD4690BD00BF16
:107EB00080B586B002AFF860B9607A603B60FFF7CA
:107EC000EFFE3B8B00933B7F0193F868B9687A68BB
:107ED0003B68FFF7CDFFFFF7EBFEF868FEF78CF885
:107EE0001037BD4680BD00BF80B586B000AFF860DA
:107EF000B9601346FB8001F05FFEFFF7F5FE034615
:107F0000FB82F868B96800F03BF8BB68FA881A8110
:107F1000BB68FA8A5A81F868B968FEF7B9F8183769
:107F2000BD4680BD80B584B000AFF860B96013462F
:107F3000FB8001F041FEFB88F868B9681A46FFF73C
:107F4000D3FFF868FEF748F81037BD4680BD00BF84
:107F500080B584B000AFF860B9601346FB80FFF7CE
:107F60009FFEFB88F868B9681A46FFF7BDFFFFF768
:107F70009FFEF868FEF740F81037BD4680BD00BF91
:107F800080B584B000AF7860396001F015FE7B6881
:107F90001033FB6003E0FB681B681033FB60FB6879
:107FA0001B68002B04D0FB681A683B689A42F2D128
:107FB000FB681B68002B04D0FB681B681A69FB6810
:107FC0001A601037BD4680BD80B582B000AF7860C2
:107FD0003960FFF765FE78683968FFF7D1FFFFF772
:107FE00067FE0837BD4680BD80B483B000AF7860BF
:107FF0007B68002B01D1002301E07B685B68184699
:108000000C37BD465DF8047B704700BF80B586B075
:1080100000AFF860B9607A603B60F868B968FEF755
:10802000F9F80346002B02D0164801F0E7FCBB68C4
:10803000184679683A683B6AFFF7B6FBBA68FB688E
:108040000C3310461946FFF757FDFFF729FEBB68B2
:1080500000221A63FB6814337B6103E07B691B68B1
:1080600030337B617B691B68002BF7D17B69BA6871
:108070001A60FFF71DFEF868FDF7BEFF1837BD4612
:1080800080BD00BFE0D0000880B584B000AF78604C
:1080900039603B681846FFF7CBFBFFF701FE7B68B2
:1080A0001433FB6003E0FB681B683033FB60FB6844
:1080B0001B68002B04D0FB681A683B689A42F2D117
:1080C000FB681B68002B04D0FB681B681A6BFB68FD
:1080D0001A60FFF7EDFD1037BD4680BD90B589B041
:1080E00000AFF860B9607A603B6001F065FDF86848
:1080F000B968FEF737F80346002B02D0254801F097
:108100007DFC7B6808337B61BB687A681A60BB685A
:10811000043318467969002200F052FDBB6803F170
:1081200010043B689B001846FFF722FE02463B689E
:10813000204611461A4601F0B1FBBB68FA689A6303
:108140000023FB610CE0BB681C1D7869FFF710FE83
:10815000034620461946FFF719FEFB690133FB6110
:10816000FA693B689A42EED3BB680022DA63FB6887
:108170001833BB6103E0BB691B683C33BB61BB695F
:108180001B68002BF7D1BB69BA681A602437BD465B
:1081900090BD00BF00D1000880B584B000AFF8608A
:1081A000B9607A603B60FFF77BFDF868B9687A6870
:1081B0003B68FFF793FFFFF77BFD1037BD4680BD9F
:1081C00080B483B000AF0346FB804FF08042FB8851
:1081D00053634FF0804300221A614FF08043022224
:1081E000DA600C37BD465DF8047B704780B400AFA1
:1081F0004FF080430022DA60BD465DF8047B704793
:1082000080B483B000AF0346FB804FF08042FB8810
:1082100053630C37BD465DF8047B704780B400AFF4
:108220004FF08043DB6803F00203002B14BF0123EF
:108230000023DBB21846BD465DF8047B704700BFE3
:1082400080B500AF00F02CFA80BD00BF80B582B0D1
:1082500000AF0346FB80FFF7E1FF0346002B02D08F
:10826000044801F0CBFBFB881846FFF7A9FF08374D
:10827000BD4680BD48D0000880B500AFFFF7B6FF0F
:1082800080BD00BF80B582B000AF0346FB80FFF722
:10829000C5FF034683F00103DBB2002B02D0054883
:1082A00001F0ACFBFB881846FFF7AAFF0837BD4674
:1082B00080BD00BF58D0000880B483B000AF7860A4
:1082C0003960134A3B68DBB21B01D9B27B681344A7
:1082D00003F540730A461A700D497B685B097A689A
:1082E00002F01F02012000FA02F2603341F823205D
:1082F00007497B685B097A6802F01F02012000FAD7
:1083000002F241F823200C37BD465DF8047B70472C
:1083100000E100E080B483B000AF78600B497B6877
:108320005B097A6802F01F02012000FA02F2203392
:1083300041F82320054A7B68134403F5407300226B
:108340001A700C37BD465DF8047B704700E100E011
:1083500080B400AF044A044B1B6843F4807313607D
:10836000BD465DF8047B70470070004080B500AFEB
:10837000104B1B690F4B4FF0FF321A610D4B00225F
:108380001A610C4BDB680B4B4FF0FF32DA60094B84
:108390000022DA60074A074BDB6943F08053D36160
:1083A000044A044BDB6943F00063D361FFF7D0FF5D
:1083B00080BD00BF0010024080B400AF274A274BA9
:1083C0001B6843F001031360244B1B6803F0020396
:1083D000002BF9D0214A214B1B6803F0F9031360ED
:1083E0001E4B00225A601D4B5B6803F00C03002BF0
:1083F000F9D11A4A194B1B6843F480331360174BA9
:108400001B6803F40033002BF9D0144A134B5B684C
:1084100043F4E8135360114A104B1B6843F0807318
:1084200013600E4B1B6803F00073002BF9D00B4B4D
:108430000B4A5A600B4B12221A60084A074B5B68C2
:1084400043F002035360054B5B6803F00C03082BF9
:10845000F9D1BD465DF8047B704700BF00100240B3
:1084600000641D000020024080B400AF194A194B7F
:108470009B6943F07D039361174B4FF0FF32DA6045
:10848000154B164A5A60144B154A1A60154B4FF09B
:10849000FF32DA60134B144A5A60124B4FF08832A5
:1084A0001A60124B4FF0FF32DA60104B104A5A60DC
:1084B0000E4B104A1A60104B4FF0FF32DA600E4B31
:1084C0004FF088325A600C4B0C4A1A60BD465DF87A
:1084D000047B7047001002400008014088488B88E8
:1084E000844B8888000C01408888B8B40010014093
:1084F00088338388888884440014014044888888AD
:1085000080B48BB000AFF860B9607A607B68032BF1
:1085100003D1FB68BA681A6105E07B68042B02D1BD
:10852000FB68BA685A612B4A7B6813441B783B612D
:108530000023BB61BB69FB61FB693B623B6A7B62F9
:1085400000237B612DE03B6A1B013B627B6A1B01C0
:108550007B62BB691B01BB61FB691B01FB61BB68E3
:1085600003F08003002B04D13B6A43F00F033B620E
:1085700003E0BA693B691343BB61BB6803F4004382
:10858000002B04D17B6A43F00F037B6203E0FA699E
:108590003B691343FB61BB685B00BB607B690133D4
:1085A0007B617B69072BCED9FB685A687B6A1A40CE
:1085B000FB691A43FB685A60FB681A683B6A1A40F9
:1085C000BB691A43FB681A602C37BD465DF8047B13
:1085D000704700BF64D0000880B483B000AF202390
:1085E0007B607B6883F311880C37BD465DF8047BA4
:1085F000704700BF80B483B000AF00237B607B680E
:1086000083F311880C37BD465DF8047B704700BFCB
:1086100080B500AFFFF7E0FF80BD00BF80B500AFC1
:10862000FFF7E8FF80BD00BF80B500AFFFF7F0FFA8
:1086300001F05EFA80BD00BF80B500AF01F06EFAB8
:10864000FFF7ECFF80BD00BF80B500AFFFF7ECFF88
:1086500080BD00BF80B500AFFFF7EEFF80BD00BF5B
:1086600080B500AF01F0D6F980BD00BF80B500AF86
:1086700001F06AFA4FF080431B6903F00203002BFC
:1086800009D04FF0804300221A61FFF7DDFFFFF7AA
:10869000E7FFFFF7DFFF01F073FA00F07DFB80BD1D
:1086A00080B500AF194A194BDB6943F00103D36170
:1086B000174A174B5B6843F4006353604FF08043E5
:1086C00041F61F429A624FF080434FF6FF72DA6222
:1086D0004FF0804300229A614FF0804300225A639A
:1086E0004FF080430022DA604FF0804300225A604E
:1086F0004FF0804301225A614FF0804301221A60FB
:108700001C200821FFF7D8FD80BD00BF00100240EB
:10871000002004E080B400AFBD465DF8047B7047E4
:10872000B0B582B000AF78600B46FB707B68002B61
:1087300017D0FB78002B12D1786807214FF0000288
:108740004FF0000300F068F804460D467968D1F850
:108750000720D1F80B309D4208BF944201D101237C
:1087600000E0002303F00103DBB218460837BD46E2
:10877000B0BD00BF80B584B000AF78607B689B7EE1
:1087800003F07F03DBB2012B01D000233EE0002386
:10879000FB600023FB7235E0FB7A7A6806339B00AE
:1087A0001344D3F803207B689B7EC3F3C013DBB272
:1087B000002B14BF01230023DBB210461946FFF73C
:1087C000AFFF0346002B1AD0FB68002B0FD0FB7ABB
:1087D0007A6806339B001344D3F803301A78FB6899
:1087E0001B78D31ADBB2DBB25BB2002B07DDFB7A5E
:1087F0007A6806339B001344D3F80330FB60FB7A9E
:108800000133FB72FB7A012BC6D9FB68184610377F
:10881000BD4680BD00000000B0B487B000AFF86076
:10882000B960C7E90023D7E900236FEA02026FEAC3
:108830000303C7E9002300237B6136E0FA687B6904
:1088400013441B78DAB24FF0000315060024D7E971
:10885000002382EA040283EA0503C7E90023002318
:10886000FB741CE0D7E90023002A73F100030CDA43
:10887000D7E90023921843EB030315A1D1E90001C6
:1088800082EA000283EA010304E0D7E90023921898
:1088900043EB0303C7E90023FB7C0133FB74FB7C40
:1088A000072BDFD97B6901337B617A69BB689A4208
:1088B000C4D3D7E900236FEA02026FEA030310462C
:1088C00019461C37BD46B0BC704700BFAFF30080EF
:1088D0009336EAA9EBE1F04280B586B000AFF860CC
:1088E000B9601346FB8000F079FFFB88F868B9682F
:1088F0001A4600F009F8786100F078FF7B691846A5
:108900001837BD4680BD00BF80B586B000AFF860A7
:10891000B9601346FB8001F061F9FB68002B02D0BF
:10892000BB68002B02D1214801F068F8FB681B7D71
:10893000002B02D06FF0010333E0F86800F08EFFE7
:108940000346002B20DDFB68DB68191DFA68D16047
:108950001A68BB681A60FB68DA68FB685B689A4251
:1089600003D3FB681A68FB68DA60FB681B695A1E50
:10897000FB681A61FB6818331846002100F034FCCC
:1089800001F00AFD00230CE0FB6803F12002FB88E4
:108990001046194600F00AFC78617B69002BC5D0AF
:1089A0007B6918461837BD4680BD00BFC4CF00089C
:1089B00080B483B000AF20237B607B6883F3118891
:1089C0000C37BD465DF8047B704700BF80B483B0B0
:1089D00000AF00237B607B6883F311880C37BD46B2
:1089E0005DF8047B704700BF80B500AFFFF7E0FF84
:1089F00001F052F880BD00BF80B500AF01F062F811
:108A0000094B1B68084A93420AD0074B9B699A6836
:108A1000054B1B689B689A4202D2044800F0EEFFA7
:108A2000FFF7D4FF80BD00BF30130020F0CF000857
:108A300080B400AF044B054A1A60034B044A5A60E5
:108A4000BD465DF8047B704794130020B8140020E5
:108A5000003F002080B586B000AFF860B9607A6052
:108A600001F0AAF8BB68002B05D0BB685A1EBB6892
:108A70001340002B02D0174800F0C0FFBA68FB6813
:108A800013445A1EBB685B421340FB60124B1A68CA
:108A90007B6813441A46BB6813445A1EBB685B428A
:108AA00013407B617A69FB6813443B610A4B5A6847
:108AB0003B699A4204D3084B1A683B699A4201D930
:108AC000002303E0044A3B6913607B6918461837AA
